:10183300446973745F313A20252E3266200044696F
:1018430073745F323A20252E3266200000000000B8
:101853000000000000000000000000000000000085
:101863000000000000000000000000000000000075
:041873000000000071
:10131B00C2B6C2B4C2B3C2B2C294C292C293C29199
:10132B00755101758901C28CC28D1218F8E5516097
:10133B0004054680021546AF4612187712198C30F9
:10134B0092FDD28C309203308DFAC28CC28DAF8C51
:10135B00EFAD8AF552EDF5531219943094FDD28C02
:10136B00309403308DFAC28CC28DAF8CEFAD8AF501
:10137B0054EDF555E4F529F5287527C07526C0FF02
:10138B00FE7D207C41121682C004C005C006C0073A
:10139B00AC52AD53E4120A247B487AE1798A783F48
:1013AB00120800D003D002D001D0001208008F4ADF
:1013BB008E498D488C47E4F529F5287527C075268D
:1013CB00C0FFFE7D207C41121682C004C005C00602
:1013DB00C007AC54AD55E4120A247B487AE1798AF4
:1013EB00783F120800D003D002D001D000120800C1
:1013FB008F4E8E4D8D4C8C4BE4F529F5287527C0FF
:10140B007526C0FFFE7D207C41121682C004C005EC
:10141B00C006C0077F007EFC7D057C47AB4AAA490E
:10142B00A948A847120800D003D002D001D000125F
:10143B000800E4FBFAF978401209098F418E408DC0
:10144B003F8C3EE4F529F5287527C07526C0FFFEB5
:10145B007D207C41121682C004C005C006C0077FE8
:10146B00007EFC7D057C47AB4EAA4DA94CA84B12C8
:10147B000800D003D002D001D000120800E4FBFA20
:10148B00F978401209098F458E448D438C42E4FF55
:10149B00FE7DA07C41AB41AA40A93FA83E1209A604
:1014AB00600250057551018019E4FFFE7DA07C415F
:1014BB00AB45AA44A943A8421209A660025003E413
:1014CB00F5517525FF75261875273385412B8540FA
:1014DB002A853F29853E287BFF7A18794F120F0802
:1014EB007525FF75261875274185452B85442A855B
:1014FB0043298542287BFF7A187963120F087F01F5
:10150B001219647FF47E011219167F801219647B05
:10151B00FF7A18794F1218A67FC01219647BFF7AD5
:10152B001879631218A6AF46EF3395E0FEEF64B45B
:10153B004E7004F5516138E5466002613875510112
:02154B00613805
:0618A6008B228A23892435
:1018AC00E4F525F526AB22AA23A9248526828525D5
:1018BC0083120E09FF600D1219720526E52670E5DC
:0418CC00052580E18D
:0118D00022F5
:10194400758CDB758AFFD28C308DFDC28DC28C22E2
:0E1964008FA0C2B2C2B3D2B4121944C2B422D0
:1018F8007F381219647F0E1219647F011219647FF0
:0E190800061219647F0C1219647F80021964A4
:0E1972008FA0D2B2C2B3D2B4121944C2B422B2
:10195400758CFF758AF5D28C308DFDC28CC28D22B8
:08198C00D291121954C29122FC
:08199400D293121954C29322F0
:10187700EF75F006A4AEF0249AF557EE3403F5564B
:10188700C374019557F55074489556F54FD2B6AFC6
:0F18970057AE5612192EC2B6AF50AE4F02192ED1
:10192E00C3E49FFFE49EAD07F58C8D8AD28C308D7B
:05193E00FDC28CC28D0A
:011943002281
:10191600E4FDFCC3ED9FEC9E500D758C03758A9A11
:071926000DBD00010C80EC77
:01192D002297
:10080000EC4D6011E8497017ED33EC3304600DE4F2
:10081000FCFFFEFD22E933E8330470F8020A92126D
:100820000A5D58046009E4CC24815006285009026E
:100830000A9C284003020A99C0E0EB4A7044B98040
:1008400006D0E0FB020A88EF4E701CBD8008EBFF6B
:10085000EAFEE9FD80EBE98DF0A4FEE5F00208E98F
:10086000E9CDF9EAFEEBFFEF89F0A4FCE5F0CE89D3
:10087000F0A42EFFE435F0CD89F0A42DFEE435F090
:100880008067EF4E7005BD80D780C3EF8BF0A4ACBE
:10089000F0EE8BF0A42CFCE435F0F8EF8AF0A42CF9
:1008A000E5F038FCE433CB8DF0A42CFCE5F03BF80C
:1008B000EE8AF0A42CFCE5F038F8E433CF89F0A4FC
:1008C0002CFCE5F038CF3400CE89F0A42FFFE5F002
:1008D0003EFEE433C98DF0A42EFEE5F039CD8AF05A
:1008E000A42FFFE5F03EFEE43DFD33D0E0FB5007D2
:1008F0000BBB000F020A9CEC2CFCEF33FFEE33FE27
:06090000ED33FD020A7454
:10090600020A9CEC5D046005E859047003020A9231
:10091600120A5D580460F6EC4860F2EC7004FDFEC5
:10092600FF22C860DB2481C85009C39860025006C4
:10093600020A999850CAF582E9294B4A7005AB829A
:10094600020A8875F0007C1A7880C3EF9BEE9AED58
:1009560099400DC3EF9BFFEE9AFEED99FDE842F03C
:10096600DC23ACF0D0E0FFD0E0FED0E0FDAB82208F
:10097600E7101BEB60BAEC2CFCEF33FFEE33FEED19
:1009860033FD020A74E803F830E705C0F075F0009D
:10099600EF2FFFEE33FEED33FD40B830E7C280AAFD
:1009A60074F8CC6480CCC86480C8F58204604FC3F8
:1009B600EB9FF5F0EA9E42F0E99D42F0E89C45F097
:1009C600603C501DE5825FFFE582D313CB5BCBF421
:1009D6002B5582FB50280ABA002409B9002008804A
:1009E6001DE5825BFBE582D313CF5FCFF4C3132FE4
:1009F6005582FF50090EBE00050DBD00010CC3EB6C
:100A06009FF5F0EA9E42F0E99D42F0E89C45F060D1
:090A160007CC4820E701B3EC22F3
:100A1F0075F020800E75F010800575F0087D007E52
:100A2F00007F003392D530D503120E48EC334010BF
:100A3F00EF33FFEE33FEED33FDEC33FCD5F0ED225B
:0E0A4F00E5F0247EA2D513CC92E7CDCEFF2297
:100EAC00E5392425F8E60539227822300702782521
:100EBC00E475F001120E76020DF02000EB7F2ED2BD
:100ECC00008018EF540F2490D43440D4FF30040B1E
:100EDC00EF24BFB41A0050032461FFE53A600215F9
:100EEC003A053DE53D7002053C30070D7822E4756E
:100EFC00F001120E76EF020E360218D17403D207EF
:100F0C008003E4C207F5398B228A238924E4F53A5D
:100F1C00F53CF53DE53A60077F20120EE780F5754C
:100F2C003BFFC201C200C202C203C205C206C20814
:100F3C00120EB5FF700D3007057F00120EF8AF3D95
:100F4C00AE3C22B4255FC2D5C204120EB5FF24D02C
:100F5C00B40A00501A75F00A783A30D50508B6FF75
:100F6C000106C6A426F620D5047002D20380D9242B
:100F7C00CFB41A00EF5004C2E5D2040211E5D2013D
:100F8C0080C6D20080C0D20280BCD2D580BAD20535
:100F9C0080B47F20120EE72002077401B53A00409E
:100FAC00F1120EACFF120EE7020F20D208D206800F
:100FBC0095120EACFB120EACFA120EACF94A4B7039
:100FCC000679DC7A127BFF20022EE53A602A7E003D
:100FDC008E82758300120E0960060EEE653B70F072
:100FEC00C2D5EBC0E0EAC0E0E9C0E0EE121245D099
:100FFC00E0F9D0E0FAD0E0FB120DF0FF60AAEBC0F4
:10100C00E0EAC0E0E9C0E0120EE7D0E02401F9D03C
:10101C00E03400FAD0E0FBE53B0460DCD53BD98042
:10102C0087D20280A212122860F7E53B70010412ED
:10103C000C01A93B600DE53B600914F53B1212CF86
:10104C00EF60F3EA30E702F404C3995077EAF42531
:10105C003B0430E701E404F53B800D12122860C11B
:10106C00EA053B253B120C01EA7838F630E701E43F
:10107C00253B04D53B0420050114121245E4C0E0C5
:10108C001212CF7838E6601320E70714F6120ECF51
:10109C00802204F6D0E014C0E07F00120ECFE53BB6
:1010AC006007120EC6153B800B300503120EC6D01E
:1010BC00E0020F20D0E00480C512122860A0E53BAE
:1010CC0004120C017838EAF6E53B200502600104B5
:0510DC0024041212457E
:1010E10074FF04C0E01212CF120ECFE53B200502BF
:1010F1006003120EC6D0E0B53BE87F45120ED978E9
:1011010038E67F2B30E7047F2DF404C0E0120EE7B0
:10111100D0E075F00A84C0F0120ED0D0E0120ED0EB
:10112100020F20791080027908C206C2088008D215
:10113100D5790A8004790AC2D5E53B047002F53BF2
:10114100E4FAFDFEFF120EACFC7B08200113120E27
:10115100ACFD7B1030000A120EACFE120EACFF7B10
:1011610020EC3382D592D55013C3E43000069FFFA3
:10117100E49EFEE42001039DFDE49CFCE4CBF8C267
:1011810001EC700CCFCECDCCE824F8F870F38017C9
:10119100C3EF33FFEE33FEED33FDEC33FCEB33FBFA
:1011A100994002FB0FD8E9EB300105F8D0E0C448C3
:1011B100B201C0E00AEC4D4E4F78207B0070C2EACC
:1011C100B53B0040BCC0E0121247D0F0D0E0200196
:1011D10004C4C0E0C4B201C0F0120ED0D0F0D5F00A
:1011E100EB020F20120E860FBD531124580F8E4CA7
:1011F1000F8A4211284F1130441130490FA3431176
:10120100365510674610C54510314712FC500F92F4
:101211002D0F962E0FB92B0F9A230FB72012E52A07
:101221000F524800000FB1E53BB4FF03753B0612B6
:101231000EACFC120EACFD120EACFE120EACFF7821
:1012410031020C30790AA2D5200314300509B910F6
:10125100020404B9080104A2D520060250010420A9
:1012610002689202B53A005034C0E07F2030031981
:101271007F30A20272067205500F12129EC202C284
:1012810006C205C2087F30800F300503E9C0E012B5
:101291000EE7300503D0E0F9D0E0B53ACC300517C0
:1012A1007F30B9100C120EE77F583004077F788029
:1012B10003B90803120EE73002057F2D020EE77F06
:1012C100202008F87F2B2006F322920280CF7F0096
:1012D100B4070050052431F8E6FF22286E756C6CC6
:1012E1002900D201120EAC3001F8C201783A30D592
:1012F1000108F6020F522D50434958120EAC240337
:10130100B405004001E49012F793120ED8743A121A
:0A1311000ED8D203753A040211242D
:101682008F258E248D238C22E4FFFE7D807C3FAB50
:1016920025AA24A923A8221209A67009AF25AE24DF
:1016A200AD23AC2222AF25AE24AD23AC22120AA771
:1016B200FBAF29AE28AD27AC26120AA7FFBF01084F
:1016C200E4FFFE7D807C3F22EF64046022EB640431
:1016D200601DBB0127E4FFFEFDFCAB29AA28A92758
:1016E200A8261209A660084006E4FFFEFDFC22744B
:1016F200FFF529F528F527F526021790E4F52AF5D6
:101702002BFFFEFDFCAB25AA24A923A8221209A6C1
:10171200504BAF29AE28AD27AC26120BCA8E2A8FAA
:101722002BAC2AAD2BEC120A24C8ECC8C9EDC9CAED
:10173200EECACBEFCBAF29AE28AD27AC26120AC436
:10174200E4FBFAF9F81209A670A5AF25AE24AD2381
:10175200AC22120BB98F258E248D238C22AF25AE9D
:1017620024AD23AC22121581AB29AA28A927A826C9
:101772001208001217D18F298E288D278C26E52B6F
:1017820030E00B120BB98F298E288D278C26AF29BA
:07179200AE28AD27AC2622B2
:100A5D00E9D2E7C933E833F892D5EDD2E7CD33ECDF
:070A6D0033FC5002B2D52258
:100A7400EC30E7100FBF000C0EBE00080DBD0004E3
:100A84000BEB6014A2D5EB13FCED92E7FD2274FF8F
:100A9400FCFDFEFF22E480F8A2D574FF13FC7D80E8
:030AA400E480EFFC
:100AA700ED33EC33601004700FED547F7005740262
:0A0AB70092E0227404220422E422DB
:100AC100020A92E86480F8E933E83360110460F0C7
:100AD100ED33EC337009E8FCE9FDEAFEEBFF22049B
:100AE10060DED3EB9FEA9EE99DE8C2E78CF0C2F796
:100AF10095F0400CE8CCF8E9CDF9EACEFAEBCFFB62
:100B0100120A5D85D0F05804700320D5B3E8047053
:100B1100075002B2D5020A9C92D5EC0460F7E4CCEE
:100B2100C0E0C398F8603B94186008400DD0E0FB2A
:100B3100020A74E4FBFAC9FC8028E830E406E4C93F
:100B4100FBE4CAFCE830E305E4C9CACBFCE854077E
:100B51006010F8C3E913F9EA13FAEB13FBEC13FC89
:100B6100D8F130F52FC3E49CFCEF9BFFEE9AFEED2C
:100B710099FDD0E0FBEF4E4D4C701222DB03020ACF
:100B810099EC2CFCEF33FFEE33FEED33FDED30E756
:100B9100EB020A74EF2BFFEE3AFEED39FDD0E0FBDC
:100BA10050130BBB0003020A9CED13FDEE13FEEF85
:080BB10013FFEC13FC020A74AF
:100BB900ED33EC33600A047003BD8004ECB2E7FC4A
:010BC9002209
:100BCA00EDD2E7CD33EC3392D524814006E4FFFE23
:100BDA00FDFC22FCE4CFCECDCC24E0501174FF8082
:100BEA00EDC3CC13CCCD13CDCE13CECF13CF04701F
:070BFA00F030D5DE020E48C9
:100C0100F920E72824F950037907E4F42402FB18BA
:100C1100DBFDE624FB5014E9600DE4F618E604F66A
:0F0C2100B40A08E4F6D9F57401F60A22C2D52206
:100C3000ED33EC3392D5FA602AB4FF33EDC2E77B93
:100C4000FF60067A0C7955E4227A0C795E20D5048F
:100C50007A0C7959224E614E002B494E46002D499F
:100C60004E4600E47A08F608DAFC7B00740722E8B6
:100C7000C0E0ECC0E0EDC0E0EEC0E0EFC0E0EA753F
:100C8000F010A4CAABF075F04DA42BFBE435F0FCDA
:100C9000EA2410FAEB34C5FBEC34D9FCEDC2E7FFD3
:100CA00075F056A4F42411C5F0F434C58FF0A42ACD
:100CB000E5F03BE43CF620E714120D63D0E0FFD0F2
:100CC000E0FED0E0FDD0E0FC1209098014F404122B
:100CD0000D63D0E0FFD0E0FED0E0FDD0E0FC1208D4
:100CE00000D0E0F8E6FAEDD2E7CD33EC332482FB16
:100CF000E4C3CF33CFCE33CECD33CD33DBF37B075D
:100D000075F00A846004F6081B0AE5F0F6088FF017
:100D1000740AA4FFACF08EF0740AA42CFEACF05060
:100D2000010C8DF0740AA42CFDE435F0F608DBDE2E
:030D300074072223
:1017990033DA929E35B16011377FE5FE39218489AC
:1017A9003AAEC3FF3C1D955B3D6358473E75FDF05E
:1017B9003F3172183F800000C2D5020A9C020A928A
:1017C900BD80FA50F3020A99ED33EC330460F17BE2
:1017D9003B7AAA79B8783F120800ED33EC3392D5F9
:1017E900247B5011A2D570DB500BED4480240450AA
:1017F90004A2D580CEEFFBEEFAEDF9ECF8120BCA94
:10180900EFF582F404FC120A29120AC8C082901763
:10181900997409120DB2ED33CC33D0F092D525F07D
:0A182900A2D57001C313CC13FD22F9
:10154D003E9248DA3ECCCCCD3F2AAAAB40000000FB
:10155D003F8000003F9837F03FB504F33FD744FC80
:10156D003E3172173EB172173F0515913EDE5BD9C4
:10157D00D2008002C200EDD2E7F8CD33EC33047017
:10158D000BBD800592D5020A9C020A9240FBD31432
:10159D0060F2F5F07C3FEE7A00C39496C8948B40D0
:1015AD00230AC89469C8941A401A0AC89468C89442
:1015BD001F40110AC8945AC89425400805F07A00B6
:1015CD00CDC2E7CDC0F08C2C8D2D8E2E8F2FEA2322
:1015DD0023C0E0245DF582E43415F583120E661206
:1015ED000AC8ECC0E0EDC0E0EEC0E0EFC0E0120EC6
:1015FD0056A82CA92DAA2EAB2F120AC4D0E0FBD0D1
:10160D00E0FAD0E0F9D0E0B2E7F81209098C2C8DA0
:10161D002D8E2E8F2F90154D7403120DA3A82CA96E
:10162D002DAA2EAB2F120800D0E0600F2469F58291
:10163D00E43415F583120E66120AC88C2C8D2D8E8E
:10164D002E8F2FD0E0C3947FFDE49400FC120A246A
:10165D007B187A727931783F120800A82CA92DAA2F
:10166D002EAB2F120AC830000B7BD97A5B79DE784E
:05167D003E12080022EE
:100D33003F8000004120000042C80000447A0000C8
:100D4300461C400047C35000497424004B1896804A
:100D53004CBEBC205A0E1BCA6753C21C749DC5AE41
:100D6300FB60065407601C2323120D91EB5438607B
:100D730009120D7D120D8C120800ECF8EDF9EEFA54
:100D8300EFCB22EB120D8C80F1543803241C900D11
:100D930033FE93FC0EEE93FD0EEE930ECE93FF22E5
:100DA300C0E0EFFBEEFAEDF9ECF8120800D0E0F545
:100DB300F0EFFBEEFAEDF9ECF8120E56A3A3A3A3A2
:100DC300E8C0E0E9C0E0EAC0E0EBC0E0C0F0120830
:100DD30000120E66A3A3A3A3120AC8D0F0D0E0FBAF
:0D0DE300D0E0FAD0E0F9D0E0F8D5F0D4224D
:0300000002198062
:0C198000787FE4F6D8FD75815802131B37
:100DF000BB010689828A83E0225002E722BBFE0201
:090E0000E32289828A83E4932233
:100E0900BB010CE58229F582E5833AF583E022509E
:100E190006E92582F8E622BBFE06E92582F8E222E8
:0D0E2900E58229F582E5833AF583E4932202
:100E3600BB010689828A83F0225002F722BBFE019B
:020E4600F32295
:0E0E4800C3E49FFFE49EFEE49DFDE49CFC22BB
:100E5600E493FC740193FD740293FE740393FF22E2
:100E6600E493F8740193F9740293FA740393FB22E2
:100E7600FAE6FB0808E6F925F0F618E6CA3AF6227D
:100E8600D083D082F8E4937012740193700DA3A3FB
:100E960093F8740193F5828883E47374029368600F
:060EA600EFA3A3A380DF0F
:1018D100EFB40A07740D1218DC740A309811A89934
:1018E100B8130CC2983098FDA899C298B811F63077
:0718F10099FDC299F599224F
:00000001FF
